{
  "contractName": "Certi",
  "abi": [
    {
      "inputs": [],
      "stateMutability": "nonpayable",
      "type": "constructor"
    },
    {
      "inputs": [
        {
          "internalType": "string",
          "name": "",
          "type": "string"
        }
      ],
      "name": "certificates",
      "outputs": [
        {
          "internalType": "string",
          "name": "ipfs",
          "type": "string"
        },
        {
          "internalType": "uint256",
          "name": "issuer",
          "type": "uint256"
        },
        {
          "internalType": "uint256",
          "name": "issuetime",
          "type": "uint256"
        },
        {
          "internalType": "uint256",
          "name": "validtill",
          "type": "uint256"
        }
      ],
      "stateMutability": "view",
      "type": "function",
      "constant": true
    },
    {
      "inputs": [
        {
          "internalType": "uint256",
          "name": "",
          "type": "uint256"
        }
      ],
      "name": "institutes",
      "outputs": [
        {
          "internalType": "address",
          "name": "",
          "type": "address"
        }
      ],
      "stateMutability": "view",
      "type": "function",
      "constant": true
    },
    {
      "inputs": [
        {
          "internalType": "address",
          "name": "",
          "type": "address"
        }
      ],
      "name": "institutes_reverse",
      "outputs": [
        {
          "internalType": "uint256",
          "name": "",
          "type": "uint256"
        }
      ],
      "stateMutability": "view",
      "type": "function",
      "constant": true
    },
    {
      "inputs": [
        {
          "internalType": "string",
          "name": "_ipfs",
          "type": "string"
        },
        {
          "internalType": "uint256",
          "name": "_validtill",
          "type": "uint256"
        },
        {
          "internalType": "string",
          "name": "_cerdID",
          "type": "string"
        }
      ],
      "name": "generateCert",
      "outputs": [],
      "stateMutability": "nonpayable",
      "type": "function"
    },
    {
      "inputs": [
        {
          "internalType": "string",
          "name": "_cerdID",
          "type": "string"
        }
      ],
      "name": "revoke",
      "outputs": [],
      "stateMutability": "nonpayable",
      "type": "function"
    },
    {
      "inputs": [
        {
          "internalType": "string",
          "name": "_cerdID",
          "type": "string"
        },
        {
          "internalType": "uint256",
          "name": "_validtill",
          "type": "uint256"
        }
      ],
      "name": "reinstate",
      "outputs": [],
      "stateMutability": "nonpayable",
      "type": "function"
    },
    {
      "inputs": [
        {
          "internalType": "address",
          "name": "_newaddress",
          "type": "address"
        }
      ],
      "name": "changeaddress",
      "outputs": [],
      "stateMutability": "nonpayable",
      "type": "function"
    },
    {
      "inputs": [
        {
          "internalType": "string",
          "name": "_cerdID",
          "type": "string"
        }
      ],
      "name": "verify",
      "outputs": [
        {
          "internalType": "string",
          "name": "",
          "type": "string"
        },
        {
          "internalType": "address",
          "name": "",
          "type": "address"
        },
        {
          "internalType": "uint256",
          "name": "",
          "type": "uint256"
        },
        {
          "internalType": "uint256",
          "name": "",
          "type": "uint256"
        }
      ],
      "stateMutability": "view",
      "type": "function",
      "constant": true
    }
  ],
  "bytecode": "0x608060405234801561001057600080fd5b5060008080600181540180825580915050600190039060005260206000200160009091909190916101000a81548173ffffffffffffffffffffffffffffffffffffffff021916908373ffffffffffffffffffffffffffffffffffffffff1602179055506110f6806100826000396000f3fe608060405234801561001057600080fd5b50600436106100885760003560e01c80638f2b91ea1161005b5780638f2b91ea146100fd57806390ee20b014610130578063bb9c6c3e14610160578063be4379051461019357610088565b80631fb9d1421461008d57806323f0e716146100a957806365b2a863146100c557806368ca940b146100e1575b600080fd5b6100a760048036038101906100a29190610ab2565b6101c3565b005b6100c360048036038101906100be9190610b7a565b610376565b005b6100df60048036038101906100da9190610bda565b61043c565b005b6100fb60048036038101906100f69190610c27565b610501565b005b61011760048036038101906101129190610dfd565b61072f565b6040516101279493929190610edd565b60405180910390f35b61014a60048036038101906101459190610f29565b6107fd565b6040516101579190610f65565b60405180910390f35b61017a60048036038101906101759190610bda565b61083c565b60405161018a9493929190610f80565b60405180910390f35b6101ad60048036038101906101a89190610ab2565b610985565b6040516101ba9190610fcc565b60405180910390f35b6000600260003373ffffffffffffffffffffffffffffffffffffffff1673ffffffffffffffffffffffffffffffffffffffff168152602001908152602001600020541161020f57600080fd5b806000600260003373ffffffffffffffffffffffffffffffffffffffff1673ffffffffffffffffffffffffffffffffffffffff168152602001908152602001600020548154811061026357610262610fe7565b5b9060005260206000200160006101000a81548173ffffffffffffffffffffffffffffffffffffffff021916908373ffffffffffffffffffffffffffffffffffffffff160217905550600260003373ffffffffffffffffffffffffffffffffffffffff1673ffffffffffffffffffffffffffffffffffffffff16815260200190815260200160002054600260008373ffffffffffffffffffffffffffffffffffffffff1673ffffffffffffffffffffffffffffffffffffffff168152602001908152602001600020819055506000600260003373ffffffffffffffffffffffffffffffffffffffff1673ffffffffffffffffffffffffffffffffffffffff1681526020019081526020016000208190555050565b3373ffffffffffffffffffffffffffffffffffffffff166000600185856040516103a1929190611046565b908152602001604051809103902060010154815481106103c4576103c3610fe7565b5b9060005260206000200160009054906101000a900473ffffffffffffffffffffffffffffffffffffffff1673ffffffffffffffffffffffffffffffffffffffff161461040f57600080fd5b8060018484604051610422929190611046565b908152602001604051809103902060030181905550505050565b3373ffffffffffffffffffffffffffffffffffffffff16600060018484604051610467929190611046565b9081526020016040518091039020600101548154811061048a57610489610fe7565b5b9060005260206000200160009054906101000a900473ffffffffffffffffffffffffffffffffffffffff1673ffffffffffffffffffffffffffffffffffffffff16146104d557600080fd5b60018083836040516104e8929190611046565b9081526020016040518091039020600301819055505050565b600060018383604051610515929190611046565b9081526020016040518091039020600201541461053157600080fd5b6000600260003373ffffffffffffffffffffffffffffffffffffffff1673ffffffffffffffffffffffffffffffffffffffff16815260200190815260200160002054141561062657600080549050600260003373ffffffffffffffffffffffffffffffffffffffff1673ffffffffffffffffffffffffffffffffffffffff168152602001908152602001600020819055506000339080600181540180825580915050600190039060005260206000200160009091909190916101000a81548173ffffffffffffffffffffffffffffffffffffffff021916908373ffffffffffffffffffffffffffffffffffffffff1602179055505b604051806080016040528086868080601f016020809104026020016040519081016040528093929190818152602001838380828437600081840152601f19601f820116905080830192505050505050508152602001600260003373ffffffffffffffffffffffffffffffffffffffff1673ffffffffffffffffffffffffffffffffffffffff16815260200190815260200160002054815260200142815260200184815250600183836040516106dc929190611046565b9081526020016040518091039020600082015181600001908051906020019061070692919061099d565b506020820151816001015560408201518160020155606082015181600301559050505050505050565b6001818051602081018201805184825260208301602085012081835280955050505050506000915090508060000180546107689061108e565b80601f01602080910402602001604051908101604052809291908181526020018280546107949061108e565b80156107e15780601f106107b6576101008083540402835291602001916107e1565b820191906000526020600020905b8154815290600101906020018083116107c457829003601f168201915b5050505050908060010154908060020154908060030154905084565b6000818154811061080d57600080fd5b906000526020600020016000915054906101000a900473ffffffffffffffffffffffffffffffffffffffff1681565b606060008060008060018787604051610856929190611046565b908152602001604051809103902060405180608001604052908160008201805461087f9061108e565b80601f01602080910402602001604051908101604052809291908181526020018280546108ab9061108e565b80156108f85780601f106108cd576101008083540402835291602001916108f8565b820191906000526020600020905b8154815290600101906020018083116108db57829003601f168201915b50505050508152602001600182015481526020016002820154815260200160038201548152505090508060000151600082602001518154811061093e5761093d610fe7565b5b9060005260206000200160009054906101000a900473ffffffffffffffffffffffffffffffffffffffff168260400151836060015194509450945094505092959194509250565b60026020528060005260406000206000915090505481565b8280546109a99061108e565b90600052602060002090601f0160209004810192826109cb5760008555610a12565b82601f106109e457805160ff1916838001178555610a12565b82800160010185558215610a12579182015b82811115610a115782518255916020019190600101906109f6565b5b509050610a1f9190610a23565b5090565b5b80821115610a3c576000816000905550600101610a24565b5090565b6000604051905090565b600080fd5b600080fd5b600073ffffffffffffffffffffffffffffffffffffffff82169050919050565b6000610a7f82610a54565b9050919050565b610a8f81610a74565b8114610a9a57600080fd5b50565b600081359050610aac81610a86565b92915050565b600060208284031215610ac857610ac7610a4a565b5b6000610ad684828501610a9d565b91505092915050565b600080fd5b600080fd5b600080fd5b60008083601f840112610b0457610b03610adf565b5b8235905067ffffffffffffffff811115610b2157610b20610ae4565b5b602083019150836001820283011115610b3d57610b3c610ae9565b5b9250929050565b6000819050919050565b610b5781610b44565b8114610b6257600080fd5b50565b600081359050610b7481610b4e565b92915050565b600080600060408486031215610b9357610b92610a4a565b5b600084013567ffffffffffffffff811115610bb157610bb0610a4f565b5b610bbd86828701610aee565b93509350506020610bd086828701610b65565b9150509250925092565b60008060208385031215610bf157610bf0610a4a565b5b600083013567ffffffffffffffff811115610c0f57610c0e610a4f565b5b610c1b85828601610aee565b92509250509250929050565b600080600080600060608688031215610c4357610c42610a4a565b5b600086013567ffffffffffffffff811115610c6157610c60610a4f565b5b610c6d88828901610aee565b95509550506020610c8088828901610b65565b935050604086013567ffffffffffffffff811115610ca157610ca0610a4f565b5b610cad88828901610aee565b92509250509295509295909350565b600080fd5b6000601f19601f8301169050919050565b7f4e487b7100000000000000000000000000000000000000000000000000000000600052604160045260246000fd5b610d0a82610cc1565b810181811067ffffffffffffffff82111715610d2957610d28610cd2565b5b80604052505050565b6000610d3c610a40565b9050610d488282610d01565b919050565b600067ffffffffffffffff821115610d6857610d67610cd2565b5b610d7182610cc1565b9050602081019050919050565b82818337600083830152505050565b6000610da0610d9b84610d4d565b610d32565b905082815260208101848484011115610dbc57610dbb610cbc565b5b610dc7848285610d7e565b509392505050565b600082601f830112610de457610de3610adf565b5b8135610df4848260208601610d8d565b91505092915050565b600060208284031215610e1357610e12610a4a565b5b600082013567ffffffffffffffff811115610e3157610e30610a4f565b5b610e3d84828501610dcf565b91505092915050565b600081519050919050565b600082825260208201905092915050565b60005b83811015610e80578082015181840152602081019050610e65565b83811115610e8f576000848401525b50505050565b6000610ea082610e46565b610eaa8185610e51565b9350610eba818560208601610e62565b610ec381610cc1565b840191505092915050565b610ed781610b44565b82525050565b60006080820190508181036000830152610ef78187610e95565b9050610f066020830186610ece565b610f136040830185610ece565b610f206060830184610ece565b95945050505050565b600060208284031215610f3f57610f3e610a4a565b5b6000610f4d84828501610b65565b91505092915050565b610f5f81610a74565b82525050565b6000602082019050610f7a6000830184610f56565b92915050565b60006080820190508181036000830152610f9a8187610e95565b9050610fa96020830186610f56565b610fb66040830185610ece565b610fc36060830184610ece565b95945050505050565b6000602082019050610fe16000830184610ece565b92915050565b7f4e487b7100000000000000000000000000000000000000000000000000000000600052603260045260246000fd5b600081905092915050565b600061102d8385611016565b935061103a838584610d7e565b82840190509392505050565b6000611053828486611021565b91508190509392505050565b7f4e487b7100000000000000000000000000000000000000000000000000000000600052602260045260246000fd5b600060028204905060018216806110a657607f821691505b602082108114156110ba576110b961105f565b5b5091905056fea264697066735822122091c248382361c892ce7a937932174b996e0bec6557fa1d7ccfde77a1d87339f364736f6c63430008090033",
  "immutableReferences": {},
  "source": "// SPDX-License-Identifier: UNLICENSED\r\npragma solidity >=0.5.0;\r\n\r\ncontract Certi {\r\n    struct Certificate {\r\n        string ipfs;\r\n        uint256 issuer;\r\n        uint256 issuetime;\r\n        uint256 validtill;\r\n    }\r\n\r\n    address[] public institutes;\r\n    mapping(string => Certificate) public certificates;\r\n    mapping(address => uint256) public institutes_reverse;\r\n\r\n    constructor() {\r\n        institutes.push(address(0));\r\n    }\r\n\r\n    function generateCert(\r\n        string calldata _ipfs,\r\n        uint256 _validtill,\r\n        string calldata _cerdID\r\n    ) public {\r\n        require(certificates[_cerdID].issuetime == 0);\r\n        if (institutes_reverse[msg.sender] == 0) {\r\n            institutes_reverse[msg.sender] = institutes.length;\r\n            institutes.push(msg.sender);\r\n        }\r\n        certificates[_cerdID] = Certificate(\r\n            _ipfs,\r\n            institutes_reverse[msg.sender],\r\n            block.timestamp,\r\n            _validtill\r\n        );\r\n    }\r\n\r\n    function revoke(string calldata _cerdID) public {\r\n        require(institutes[certificates[_cerdID].issuer] == msg.sender);\r\n        certificates[_cerdID].validtill = 1;\r\n    }\r\n\r\n    function reinstate(string calldata _cerdID, uint256 _validtill) public {\r\n        require(institutes[certificates[_cerdID].issuer] == msg.sender);\r\n        certificates[_cerdID].validtill = _validtill;\r\n    }\r\n\r\n    function changeaddress(address _newaddress) public {\r\n        require(institutes_reverse[msg.sender] > 0);\r\n        institutes[institutes_reverse[msg.sender]] = _newaddress;\r\n        institutes_reverse[_newaddress] = institutes_reverse[msg.sender];\r\n        institutes_reverse[msg.sender] = 0;\r\n    }\r\n\r\n    function verify(string calldata _cerdID)\r\n        external\r\n        view\r\n        returns (\r\n            string memory,\r\n            address,\r\n            uint256,\r\n            uint256\r\n        )\r\n    {\r\n        Certificate memory cert = certificates[_cerdID];\r\n        return (\r\n            cert.ipfs,\r\n            institutes[cert.issuer],\r\n            cert.issuetime,\r\n            cert.validtill\r\n        );\r\n    }\r\n}\r\n",
  "sourcePath": "C:\\WorkSpace\\web3\\certify-contract\\contracts\\Certi.sol",
  "compiler": {
    "name": "solc",
    "version": "0.8.9+commit.e5eed63a.Emscripten.clang"
  },
  "schemaVersion": "3.4.3",
  "updatedAt": "2021-11-27T14:47:28.148Z",
  "networkType": "ethereum",
  "devdoc": {
    "kind": "dev",
    "methods": {},
    "version": 1
  },
  "userdoc": {
    "kind": "user",
    "methods": {},
    "version": 1
  }
}